{
  "abi": [
    {
      "inputs": [
        {
          "internalType": "address",
          "name": "",
          "type": "address"
        }
      ],
      "name": "proxies",
      "outputs": [
        {
          "internalType": "contract OwnableDelegateProxy",
          "name": "",
          "type": "address"
        }
      ],
      "stateMutability": "view",
      "type": "function"
    }
  ],
  "bytecode": "608060405234801561001057600080fd5b5060d38061001f6000396000f3fe6080604052348015600f57600080fd5b506004361060285760003560e01c8063c455279114602d575b600080fd5b60536038366004606f565b6000602081905290815260409020546001600160a01b031681565b6040516001600160a01b03909116815260200160405180910390f35b600060208284031215608057600080fd5b81356001600160a01b0381168114609657600080fd5b939250505056fea26469706673582212201ec3b807e22046a191a205c0cc37ac824feb9b5b79d28f5700b561e832633e1e64736f6c634300080e0033",
  "bytecodeSha1": "608638f6acaec91c90ff89e3cf3ab07429b3672a",
  "compiler": {
    "evm_version": "istanbul",
    "optimizer": {
      "enabled": true,
      "runs": 200
    },
    "version": "0.8.14+commit.80d49f37"
  },
  "contractName": "ProxyRegistry",
  "language": "Solidity",
  "natspec": {
    "kind": "dev",
    "methods": {},
    "version": 1
  },
  "opcodes": "PUSH1 0x80 PUSH1 0x40 MSTORE CALLVALUE DUP1 ISZERO PUSH1 0xF JUMPI PUSH1 0x0 DUP1 REVERT JUMPDEST POP PUSH1 0x4 CALLDATASIZE LT PUSH1 0x28 JUMPI PUSH1 0x0 CALLDATALOAD PUSH1 0xE0 SHR DUP1 PUSH4 0xC4552791 EQ PUSH1 0x2D JUMPI JUMPDEST PUSH1 0x0 DUP1 REVERT JUMPDEST PUSH1 0x53 PUSH1 0x38 CALLDATASIZE PUSH1 0x4 PUSH1 0x6F JUMP JUMPDEST PUSH1 0x0 PUSH1 0x20 DUP2 SWAP1 MSTORE SWAP1 DUP2 MSTORE PUSH1 0x40 SWAP1 KECCAK256 SLOAD PUSH1 0x1 PUSH1 0x1 PUSH1 0xA0 SHL SUB AND DUP2 JUMP JUMPDEST PUSH1 0x40 MLOAD PUSH1 0x1 PUSH1 0x1 PUSH1 0xA0 SHL SUB SWAP1 SWAP2 AND DUP2 MSTORE PUSH1 0x20 ADD PUSH1 0x40 MLOAD DUP1 SWAP2 SUB SWAP1 RETURN JUMPDEST PUSH1 0x0 PUSH1 0x20 DUP3 DUP5 SUB SLT ISZERO PUSH1 0x80 JUMPI PUSH1 0x0 DUP1 REVERT JUMPDEST DUP2 CALLDATALOAD PUSH1 0x1 PUSH1 0x1 PUSH1 0xA0 SHL SUB DUP2 AND DUP2 EQ PUSH1 0x96 JUMPI PUSH1 0x0 DUP1 REVERT JUMPDEST SWAP4 SWAP3 POP POP POP JUMP INVALID LOG2 PUSH5 0x6970667358 0x22 SLT KECCAK256 0x1E 0xC3 0xB8 SMOD 0xE2 KECCAK256 CHAINID LOG1 SWAP2 LOG2 SDIV 0xC0 0xCC CALLDATACOPY 0xAC DUP3 0x4F 0xEB SWAP12 JUMPDEST PUSH26 0xD28F5700B561E832633E1E64736F6C634300080E003300000000 ",
  "sha1": "daf32faaefa43f280a11a001fe93a98b137e80b7",
  "source": "// SPDX-License-Identifier: MIT\n\npragma solidity ^0.8.0;\n\nimport \"OpenZeppelin/openzeppelin-contracts@4.6.0/contracts/token/ERC721/ERC721.sol\";\nimport \"OpenZeppelin/openzeppelin-contracts@4.6.0/contracts/token/ERC721/extensions/ERC721Enumerable.sol\";\nimport \"OpenZeppelin/openzeppelin-contracts@4.6.0/contracts/token/ERC721/extensions/ERC721URIStorage.sol\";\nimport \"OpenZeppelin/openzeppelin-contracts@4.6.0/contracts/access/Ownable.sol\";\nimport \"OpenZeppelin/openzeppelin-contracts@4.6.0/contracts/utils/math/SafeMath.sol\";\nimport \"OpenZeppelin/openzeppelin-contracts@4.6.0/contracts/utils/Strings.sol\";\n\nimport \"./common/meta-transactions/ContentMixin.sol\";\nimport \"./common/meta-transactions/NativeMetaTransaction.sol\";\n\ncontract OwnableDelegateProxy {}\n\ncontract ProxyRegistry {\n    mapping(address => OwnableDelegateProxy) public proxies;\n}\n\n/**\n * @title ERC721Tradable\n * ERC721Tradable - ERC721 contract that whitelists a trading address, and has minting functionality.\n */\nabstract contract ERC721Tradable is\n    ContextMixin,\n    ERC721Enumerable,\n    ERC721URIStorage,\n    NativeMetaTransaction,\n    Ownable\n{\n    using SafeMath for uint256;\n\n    address proxyRegistryAddress;\n    uint256 private _currentTokenId = 0;\n\n    constructor(\n        string memory _name,\n        string memory _symbol,\n        address _proxyRegistryAddress\n    ) ERC721(_name, _symbol) {\n        proxyRegistryAddress = _proxyRegistryAddress;\n        _initializeEIP712(_name);\n    }\n\n    /**\n     * @dev Mints a token to an address with a tokenURI.\n     * @param _to address of the future owner of the token\n     */\n    function mintTo(address _to) public onlyOwner {\n        uint256 newTokenId = _getNextTokenId();\n        _mint(_to, newTokenId);\n        _incrementTokenId();\n    }\n\n    /**\n     * @dev calculates the next token ID based on value of _currentTokenId\n     * @return uint256 for the next token ID\n     */\n    function _getNextTokenId() private view returns (uint256) {\n        return _currentTokenId.add(1);\n    }\n\n    /**\n     * @dev increments the value of _currentTokenId\n     */\n    function _incrementTokenId() private {\n        _currentTokenId++;\n    }\n\n    function baseTokenURI() public pure virtual returns (string memory);\n\n    // function tokenURI(uint256 _tokenId) override public pure returns (string memory) {\n    //     return string(abi.encodePacked(baseTokenURI(), Strings.toString(_tokenId)));\n    // }\n\n    function _beforeTokenTransfer(\n        address from,\n        address to,\n        uint256 tokenId\n    ) internal override(ERC721, ERC721Enumerable) {\n        super._beforeTokenTransfer(from, to, tokenId);\n    }\n\n    function _burn(uint256 tokenId)\n        internal\n        override(ERC721, ERC721URIStorage)\n    {\n        super._burn(tokenId);\n    }\n\n    function tokenURI(uint256 tokenId)\n        public\n        view\n        override(ERC721, ERC721URIStorage)\n        returns (string memory)\n    {\n        return super.tokenURI(tokenId);\n    }\n\n    function supportsInterface(bytes4 interfaceId)\n        public\n        view\n        override(ERC721, ERC721Enumerable)\n        returns (bool)\n    {\n        return super.supportsInterface(interfaceId);\n    }\n\n    /**\n     * Override isApprovedForAll to whitelist user's OpenSea proxy accounts to enable gas-less listings.\n     */\n    function isApprovedForAll(address owner, address operator)\n        public\n        view\n        override(ERC721, IERC721)\n        returns (bool)\n    {\n        // Whitelist OpenSea proxy contract for easy trading.\n        ProxyRegistry proxyRegistry = ProxyRegistry(proxyRegistryAddress);\n        if (address(proxyRegistry.proxies(owner)) == operator) {\n            return true;\n        }\n\n        return super.isApprovedForAll(owner, operator);\n    }\n\n    /**\n     * This is used instead of msg.sender as transactions won't be sent by the original token owner, but by OpenSea.\n     */\n    function _msgSender() internal view override returns (address sender) {\n        return ContextMixin.msgSender();\n    }\n}\n",
  "sourcePath": "contracts/ERC721Tradable.sol",
  "type": "contract"
}